{
  "_format": "hh-sol-artifact-1",
  "contractName": "Marketplace",
  "sourceName": "contracts/Marketplace.sol",
  "abi": [
    {
      "inputs": [
        {
          "internalType": "uint256",
          "name": "_feePercent",
          "type": "uint256"
        },
        {
          "internalType": "address",
          "name": "_stakingContract",
          "type": "address"
        }
      ],
      "stateMutability": "nonpayable",
      "type": "constructor"
    },
    {
      "anonymous": false,
      "inputs": [
        {
          "indexed": false,
          "internalType": "uint256",
          "name": "itemId",
          "type": "uint256"
        },
        {
          "indexed": true,
          "internalType": "address",
          "name": "nft",
          "type": "address"
        },
        {
          "indexed": false,
          "internalType": "uint256",
          "name": "tokenId",
          "type": "uint256"
        },
        {
          "indexed": false,
          "internalType": "uint256",
          "name": "price",
          "type": "uint256"
        },
        {
          "indexed": true,
          "internalType": "address",
          "name": "seller",
          "type": "address"
        },
        {
          "indexed": true,
          "internalType": "address",
          "name": "buyer",
          "type": "address"
        }
      ],
      "name": "Bought",
      "type": "event"
    },
    {
      "anonymous": false,
      "inputs": [
        {
          "indexed": true,
          "internalType": "uint256",
          "name": "itemId",
          "type": "uint256"
        },
        {
          "indexed": true,
          "internalType": "address",
          "name": "nft",
          "type": "address"
        },
        {
          "indexed": false,
          "internalType": "uint256",
          "name": "tokenId",
          "type": "uint256"
        },
        {
          "indexed": false,
          "internalType": "uint256",
          "name": "price",
          "type": "uint256"
        },
        {
          "indexed": true,
          "internalType": "address",
          "name": "seller",
          "type": "address"
        }
      ],
      "name": "Offered",
      "type": "event"
    },
    {
      "inputs": [],
      "name": "feeAccount",
      "outputs": [
        {
          "internalType": "address payable",
          "name": "",
          "type": "address"
        }
      ],
      "stateMutability": "view",
      "type": "function"
    },
    {
      "inputs": [],
      "name": "feePercent",
      "outputs": [
        {
          "internalType": "uint256",
          "name": "",
          "type": "uint256"
        }
      ],
      "stateMutability": "view",
      "type": "function"
    },
    {
      "inputs": [
        {
          "internalType": "uint256",
          "name": "_itemId",
          "type": "uint256"
        }
      ],
      "name": "getItem",
      "outputs": [
        {
          "components": [
            {
              "internalType": "uint256",
              "name": "itemId",
              "type": "uint256"
            },
            {
              "internalType": "contract IERC721",
              "name": "nft",
              "type": "address"
            },
            {
              "internalType": "uint256",
              "name": "tokenId",
              "type": "uint256"
            },
            {
              "internalType": "uint256",
              "name": "currentPrice",
              "type": "uint256"
            },
            {
              "internalType": "uint256",
              "name": "previousPrice",
              "type": "uint256"
            },
            {
              "internalType": "address payable",
              "name": "creator",
              "type": "address"
            },
            {
              "internalType": "address payable",
              "name": "owner",
              "type": "address"
            },
            {
              "internalType": "uint256",
              "name": "createdAt",
              "type": "uint256"
            },
            {
              "internalType": "bool",
              "name": "sold",
              "type": "bool"
            }
          ],
          "internalType": "struct ItemTypes.Item",
          "name": "",
          "type": "tuple"
        }
      ],
      "stateMutability": "view",
      "type": "function"
    },
    {
      "inputs": [
        {
          "internalType": "uint256",
          "name": "_itemId",
          "type": "uint256"
        }
      ],
      "name": "getTotalPrice",
      "outputs": [
        {
          "internalType": "uint256",
          "name": "",
          "type": "uint256"
        }
      ],
      "stateMutability": "view",
      "type": "function"
    },
    {
      "inputs": [],
      "name": "itemCount",
      "outputs": [
        {
          "internalType": "uint256",
          "name": "",
          "type": "uint256"
        }
      ],
      "stateMutability": "view",
      "type": "function"
    },
    {
      "inputs": [
        {
          "internalType": "uint256",
          "name": "",
          "type": "uint256"
        }
      ],
      "name": "items",
      "outputs": [
        {
          "internalType": "uint256",
          "name": "itemId",
          "type": "uint256"
        },
        {
          "internalType": "contract IERC721",
          "name": "nft",
          "type": "address"
        },
        {
          "internalType": "uint256",
          "name": "tokenId",
          "type": "uint256"
        },
        {
          "internalType": "uint256",
          "name": "currentPrice",
          "type": "uint256"
        },
        {
          "internalType": "uint256",
          "name": "previousPrice",
          "type": "uint256"
        },
        {
          "internalType": "address payable",
          "name": "creator",
          "type": "address"
        },
        {
          "internalType": "address payable",
          "name": "owner",
          "type": "address"
        },
        {
          "internalType": "uint256",
          "name": "createdAt",
          "type": "uint256"
        },
        {
          "internalType": "bool",
          "name": "sold",
          "type": "bool"
        }
      ],
      "stateMutability": "view",
      "type": "function"
    },
    {
      "inputs": [
        {
          "internalType": "contract IERC721",
          "name": "_nft",
          "type": "address"
        },
        {
          "internalType": "uint256",
          "name": "_tokenId",
          "type": "uint256"
        },
        {
          "internalType": "uint256",
          "name": "_price",
          "type": "uint256"
        }
      ],
      "name": "makeItem",
      "outputs": [],
      "stateMutability": "nonpayable",
      "type": "function"
    },
    {
      "inputs": [
        {
          "internalType": "uint256",
          "name": "_itemId",
          "type": "uint256"
        },
        {
          "internalType": "uint256",
          "name": "_price",
          "type": "uint256"
        }
      ],
      "name": "offerItem",
      "outputs": [],
      "stateMutability": "nonpayable",
      "type": "function"
    },
    {
      "inputs": [
        {
          "internalType": "uint256",
          "name": "_itemId",
          "type": "uint256"
        }
      ],
      "name": "purchaseItem",
      "outputs": [],
      "stateMutability": "payable",
      "type": "function"
    },
    {
      "inputs": [],
      "name": "stakingContract",
      "outputs": [
        {
          "internalType": "address payable",
          "name": "",
          "type": "address"
        }
      ],
      "stateMutability": "view",
      "type": "function"
    }
  ],
  "bytecode": "0x60c06040523480156200001157600080fd5b5060405162001dc938038062001dc9833981810160405281019062000037919062000169565b60016000819055503373ffffffffffffffffffffffffffffffffffffffff1660808173ffffffffffffffffffffffffffffffffffffffff16815250508160a0818152505080600260006101000a81548173ffffffffffffffffffffffffffffffffffffffff021916908373ffffffffffffffffffffffffffffffffffffffff1602179055505050620001b0565b600080fd5b6000819050919050565b620000de81620000c9565b8114620000ea57600080fd5b50565b600081519050620000fe81620000d3565b92915050565b600073ffffffffffffffffffffffffffffffffffffffff82169050919050565b6000620001318262000104565b9050919050565b620001438162000124565b81146200014f57600080fd5b50565b600081519050620001638162000138565b92915050565b60008060408385031215620001835762000182620000c4565b5b60006200019385828601620000ed565b9250506020620001a68582860162000152565b9150509250929050565b60805160a051611be5620001e46000396000818161041801526105050152600081816103ee0152610a870152611be56000f3fe6080604052600436106100915760003560e01c8063ca7dd37511610059578063ca7dd37514610199578063d38ea5bf146101d6578063ee99205c146101f2578063f76b08ea1461021d578063fa00afc71461024657610091565b80633129e7731461009657806365e17c9d146100d35780636bfb0d01146100fe5780637fd6f15c14610129578063bfb231d214610154575b600080fd5b3480156100a257600080fd5b506100bd60048036038101906100b8919061132f565b61026f565b6040516100ca91906114dd565b60405180910390f35b3480156100df57600080fd5b506100e86103ec565b6040516100f59190611508565b60405180910390f35b34801561010a57600080fd5b50610113610410565b6040516101209190611532565b60405180910390f35b34801561013557600080fd5b5061013e610416565b60405161014b9190611532565b60405180910390f35b34801561016057600080fd5b5061017b6004803603810190610176919061132f565b61043a565b6040516101909998979695949392919061156b565b60405180910390f35b3480156101a557600080fd5b506101c060048036038101906101bb919061132f565b6104f5565b6040516101cd9190611532565b60405180910390f35b6101f060048036038101906101eb919061132f565b610583565b005b3480156101fe57600080fd5b50610207610cd7565b6040516102149190611508565b60405180910390f35b34801561022957600080fd5b50610244600480360381019061023f91906115f8565b610cfd565b005b34801561025257600080fd5b5061026d60048036038101906102689190611688565b610ea3565b005b610277611264565b6003600083815260200190815260200160002060405180610120016040529081600082015481526020016001820160009054906101000a900473ffffffffffffffffffffffffffffffffffffffff1673ffffffffffffffffffffffffffffffffffffffff1673ffffffffffffffffffffffffffffffffffffffff1681526020016002820154815260200160038201548152602001600482015481526020016005820160009054906101000a900473ffffffffffffffffffffffffffffffffffffffff1673ffffffffffffffffffffffffffffffffffffffff1673ffffffffffffffffffffffffffffffffffffffff1681526020016006820160009054906101000a900473ffffffffffffffffffffffffffffffffffffffff1673ffffffffffffffffffffffffffffffffffffffff1673ffffffffffffffffffffffffffffffffffffffff168152602001600782015481526020016008820160009054906101000a900460ff1615151515815250509050919050565b7f000000000000000000000000000000000000000000000000000000000000000081565b60015481565b7f000000000000000000000000000000000000000000000000000000000000000081565b60036020528060005260406000206000915090508060000154908060010160009054906101000a900473ffffffffffffffffffffffffffffffffffffffff16908060020154908060030154908060040154908060050160009054906101000a900473ffffffffffffffffffffffffffffffffffffffff16908060060160009054906101000a900473ffffffffffffffffffffffffffffffffffffffff16908060070154908060080160009054906101000a900460ff16905089565b600061057c6105576103e86105497f000000000000000000000000000000000000000000000000000000000000000060036000888152602001908152602001600020600301546111b390919063ffffffff16565b6111c990919063ffffffff16565b60036000858152602001908152602001600020600301546111df90919063ffffffff16565b9050919050565b61058b6111f5565b6000610596826104f5565b905060006003600084815260200190815260200160002090506000831180156105c157506001548311155b610600576040517f08c379a00000000000000000000000000000000000000000000000000000000081526004016105f790611738565b60405180910390fd5b81341015610643576040517f08c379a000000000000000000000000000000000000000000000000000000000815260040161063a906117ca565b60405180910390fd5b8060080160009054906101000a900460ff1615610695576040517f08c379a000000000000000000000000000000000000000000000000000000000815260040161068c90611836565b60405180910390fd5b6000600260009054906101000a900473ffffffffffffffffffffffffffffffffffffffff1690508160040154826003015411156108675760006106e98360040154846003015461124490919063ffffffff16565b90506000610701600a836111c990919063ffffffff16565b9050600061071c82866003015461124490919063ffffffff16565b90508460060160009054906101000a900473ffffffffffffffffffffffffffffffffffffffff1673ffffffffffffffffffffffffffffffffffffffff166108fc829081150290604051600060405180830381858888f19350505050158015610788573d6000803e3d6000fd5b50600260009054906101000a900473ffffffffffffffffffffffffffffffffffffffff1673ffffffffffffffffffffffffffffffffffffffff166108fc839081150290604051600060405180830381858888f193505050501580156107f1573d6000803e3d6000fd5b508373ffffffffffffffffffffffffffffffffffffffff1663e353a3ad88846040518363ffffffff1660e01b815260040161082d929190611856565b600060405180830381600087803b15801561084757600080fd5b505af115801561085b573d6000803e3d6000fd5b50505050505050610a85565b60006109026103e86108f48473ffffffffffffffffffffffffffffffffffffffff1663be1193ea6040518163ffffffff1660e01b8152600401602060405180830381865afa1580156108bd573d6000803e3d6000fd5b505050506040513d601f19601f820116820180604052508101906108e19190611894565b86600301546111b390919063ffffffff16565b6111c990919063ffffffff16565b9050600061091d82856003015461124490919063ffffffff16565b90508360060160009054906101000a900473ffffffffffffffffffffffffffffffffffffffff1673ffffffffffffffffffffffffffffffffffffffff166108fc829081150290604051600060405180830381858888f19350505050158015610989573d6000803e3d6000fd5b50600260009054906101000a900473ffffffffffffffffffffffffffffffffffffffff1673ffffffffffffffffffffffffffffffffffffffff166108fc839081150290604051600060405180830381858888f193505050501580156109f2573d6000803e3d6000fd5b50600260009054906101000a900473ffffffffffffffffffffffffffffffffffffffff1673ffffffffffffffffffffffffffffffffffffffff1663e353a3ad87846040518363ffffffff1660e01b8152600401610a50929190611856565b600060405180830381600087803b158015610a6a57600080fd5b505af1158015610a7e573d6000803e3d6000fd5b5050505050505b7f000000000000000000000000000000000000000000000000000000000000000073ffffffffffffffffffffffffffffffffffffffff166108fc610ad684600301548661124490919063ffffffff16565b9081150290604051600060405180830381858888f19350505050158015610b01573d6000803e3d6000fd5b5060018260080160006101000a81548160ff0219169083151502179055508160010160009054906101000a900473ffffffffffffffffffffffffffffffffffffffff1673ffffffffffffffffffffffffffffffffffffffff166323b872dd303385600201546040518463ffffffff1660e01b8152600401610b84939291906118d0565b600060405180830381600087803b158015610b9e57600080fd5b505af1158015610bb2573d6000803e3d6000fd5b50505050338260060160006101000a81548173ffffffffffffffffffffffffffffffffffffffff021916908373ffffffffffffffffffffffffffffffffffffffff1602179055503373ffffffffffffffffffffffffffffffffffffffff168260060160009054906101000a900473ffffffffffffffffffffffffffffffffffffffff1673ffffffffffffffffffffffffffffffffffffffff168360010160009054906101000a900473ffffffffffffffffffffffffffffffffffffffff1673ffffffffffffffffffffffffffffffffffffffff167f8b4c9c8a607d67b321582dd8461041b1dc2ceeca70c8b7f37f8e02095cf2e76d8786600201548760030154604051610cc193929190611907565b60405180910390a4505050610cd461125a565b50565b600260009054906101000a900473ffffffffffffffffffffffffffffffffffffffff1681565b610d056111f5565b600082118015610d1757506001548211155b610d56576040517f08c379a0000000000000000000000000000000000000000000000000000000008152600401610d4d90611738565b60405180910390fd5b60008111610d99576040517f08c379a0000000000000000000000000000000000000000000000000000000008152600401610d909061198a565b60405180910390fd5b80600360008481526020019081526020016000206003018190555060006003600084815260200190815260200160002060080160006101000a81548160ff0219169083151502179055503373ffffffffffffffffffffffffffffffffffffffff166003600084815260200190815260200160002060010160009054906101000a900473ffffffffffffffffffffffffffffffffffffffff1673ffffffffffffffffffffffffffffffffffffffff16837f655a0cf9c8db81512be9a76dc1c5ae5380b8816ce6ad659cd61b715e2999d59a600360008781526020019081526020016000206002015485604051610e8f929190611856565b60405180910390a4610e9f61125a565b5050565b610eab6111f5565b60008111610eee576040517f08c379a0000000000000000000000000000000000000000000000000000000008152600401610ee59061198a565b60405180910390fd5b8273ffffffffffffffffffffffffffffffffffffffff166323b872dd3330856040518463ffffffff1660e01b8152600401610f2b939291906118d0565b600060405180830381600087803b158015610f4557600080fd5b505af1158015610f59573d6000803e3d6000fd5b5050505060016000815480929190610f70906119d9565b919050555060405180610120016040528060015481526020018473ffffffffffffffffffffffffffffffffffffffff1681526020018381526020018281526020018281526020013373ffffffffffffffffffffffffffffffffffffffff1681526020013373ffffffffffffffffffffffffffffffffffffffff168152602001428152602001600015158152506003600060015481526020019081526020016000206000820151816000015560208201518160010160006101000a81548173ffffffffffffffffffffffffffffffffffffffff021916908373ffffffffffffffffffffffffffffffffffffffff16021790555060408201518160020155606082015181600301556080820151816004015560a08201518160050160006101000a81548173ffffffffffffffffffffffffffffffffffffffff021916908373ffffffffffffffffffffffffffffffffffffffff16021790555060c08201518160060160006101000a81548173ffffffffffffffffffffffffffffffffffffffff021916908373ffffffffffffffffffffffffffffffffffffffff16021790555060e082015181600701556101008201518160080160006101000a81548160ff0219169083151502179055509050503373ffffffffffffffffffffffffffffffffffffffff168373ffffffffffffffffffffffffffffffffffffffff166001547f655a0cf9c8db81512be9a76dc1c5ae5380b8816ce6ad659cd61b715e2999d59a858560405161119e929190611856565b60405180910390a46111ae61125a565b505050565b600081836111c19190611a21565b905092915050565b600081836111d79190611aaa565b905092915050565b600081836111ed9190611adb565b905092915050565b60026000540361123a576040517f08c379a000000000000000000000000000000000000000000000000000000000815260040161123190611b5b565b60405180910390fd5b6002600081905550565b600081836112529190611b7b565b905092915050565b6001600081905550565b60405180610120016040528060008152602001600073ffffffffffffffffffffffffffffffffffffffff168152602001600081526020016000815260200160008152602001600073ffffffffffffffffffffffffffffffffffffffff168152602001600073ffffffffffffffffffffffffffffffffffffffff168152602001600081526020016000151581525090565b600080fd5b6000819050919050565b61130c816112f9565b811461131757600080fd5b50565b60008135905061132981611303565b92915050565b600060208284031215611345576113446112f4565b5b60006113538482850161131a565b91505092915050565b611365816112f9565b82525050565b600073ffffffffffffffffffffffffffffffffffffffff82169050919050565b6000819050919050565b60006113b06113ab6113a68461136b565b61138b565b61136b565b9050919050565b60006113c282611395565b9050919050565b60006113d4826113b7565b9050919050565b6113e4816113c9565b82525050565b60006113f58261136b565b9050919050565b611405816113ea565b82525050565b60008115159050919050565b6114208161140b565b82525050565b6101208201600082015161143d600085018261135c565b50602082015161145060208501826113db565b506040820151611463604085018261135c565b506060820151611476606085018261135c565b506080820151611489608085018261135c565b5060a082015161149c60a08501826113fc565b5060c08201516114af60c08501826113fc565b5060e08201516114c260e085018261135c565b506101008201516114d7610100850182611417565b50505050565b6000610120820190506114f36000830184611426565b92915050565b611502816113ea565b82525050565b600060208201905061151d60008301846114f9565b92915050565b61152c816112f9565b82525050565b60006020820190506115476000830184611523565b92915050565b611556816113c9565b82525050565b6115658161140b565b82525050565b600061012082019050611581600083018c611523565b61158e602083018b61154d565b61159b604083018a611523565b6115a86060830189611523565b6115b56080830188611523565b6115c260a08301876114f9565b6115cf60c08301866114f9565b6115dc60e0830185611523565b6115ea61010083018461155c565b9a9950505050505050505050565b6000806040838503121561160f5761160e6112f4565b5b600061161d8582860161131a565b925050602061162e8582860161131a565b9150509250929050565b60006116438261136b565b9050919050565b600061165582611638565b9050919050565b6116658161164a565b811461167057600080fd5b50565b6000813590506116828161165c565b92915050565b6000806000606084860312156116a1576116a06112f4565b5b60006116af86828701611673565b93505060206116c08682870161131a565b92505060406116d18682870161131a565b9150509250925092565b600082825260208201905092915050565b7f6974656d20646f65736e27742065786973740000000000000000000000000000600082015250565b60006117226012836116db565b915061172d826116ec565b602082019050919050565b6000602082019050818103600083015261175181611715565b9050919050565b7f6e6f7420656e6f75676820657468657220746f20636f766572206974656d207060008201527f7269636520616e64206d61726b65742066656500000000000000000000000000602082015250565b60006117b46033836116db565b91506117bf82611758565b604082019050919050565b600060208201905081810360008301526117e3816117a7565b9050919050565b7f6974656d20616c726561647920736f6c64000000000000000000000000000000600082015250565b60006118206011836116db565b915061182b826117ea565b602082019050919050565b6000602082019050818103600083015261184f81611813565b9050919050565b600060408201905061186b6000830185611523565b6118786020830184611523565b9392505050565b60008151905061188e81611303565b92915050565b6000602082840312156118aa576118a96112f4565b5b60006118b88482850161187f565b91505092915050565b6118ca81611638565b82525050565b60006060820190506118e560008301866118c1565b6118f260208301856118c1565b6118ff6040830184611523565b949350505050565b600060608201905061191c6000830186611523565b6119296020830185611523565b6119366040830184611523565b949350505050565b7f5072696365206d7573742062652067726561746572207468616e207a65726f00600082015250565b6000611974601f836116db565b915061197f8261193e565b602082019050919050565b600060208201905081810360008301526119a381611967565b9050919050565b7f4e487b7100000000000000000000000000000000000000000000000000000000600052601160045260246000fd5b60006119e4826112f9565b91507fffffffffffffffffffffffffffffffffffffffffffffffffffffffffffffffff8203611a1657611a156119aa565b5b600182019050919050565b6000611a2c826112f9565b9150611a37836112f9565b9250817fffffffffffffffffffffffffffffffffffffffffffffffffffffffffffffffff0483118215151615611a7057611a6f6119aa565b5b828202905092915050565b7f4e487b7100000000000000000000000000000000000000000000000000000000600052601260045260246000fd5b6000611ab5826112f9565b9150611ac0836112f9565b925082611ad057611acf611a7b565b5b828204905092915050565b6000611ae6826112f9565b9150611af1836112f9565b9250828201905080821115611b0957611b086119aa565b5b92915050565b7f5265656e7472616e637947756172643a207265656e7472616e742063616c6c00600082015250565b6000611b45601f836116db565b9150611b5082611b0f565b602082019050919050565b60006020820190508181036000830152611b7481611b38565b9050919050565b6000611b86826112f9565b9150611b91836112f9565b9250828203905081811115611ba957611ba86119aa565b5b9291505056fea26469706673582212205fc55a39cf12f4f7828e44204d95b14e083e159579ef07a7adb0371f8429f2ab64736f6c63430008100033",
  "linkReferences": {},
  "deployedLinkReferences": {}
}