{
  "_format": "hh-sol-artifact-1",
  "contractName": "Staking",
  "sourceName": "contracts/Staking.sol",
  "abi": [
    {
      "inputs": [
        {
          "internalType": "uint256",
          "name": "_stakingPercent",
          "type": "uint256"
        },
        {
          "internalType": "address",
          "name": "_organization",
          "type": "address"
        }
      ],
      "stateMutability": "nonpayable",
      "type": "constructor"
    },
    {
      "anonymous": false,
      "inputs": [
        {
          "indexed": true,
          "internalType": "bytes32",
          "name": "role",
          "type": "bytes32"
        },
        {
          "indexed": true,
          "internalType": "bytes32",
          "name": "previousAdminRole",
          "type": "bytes32"
        },
        {
          "indexed": true,
          "internalType": "bytes32",
          "name": "newAdminRole",
          "type": "bytes32"
        }
      ],
      "name": "RoleAdminChanged",
      "type": "event"
    },
    {
      "anonymous": false,
      "inputs": [
        {
          "indexed": true,
          "internalType": "bytes32",
          "name": "role",
          "type": "bytes32"
        },
        {
          "indexed": true,
          "internalType": "address",
          "name": "account",
          "type": "address"
        },
        {
          "indexed": true,
          "internalType": "address",
          "name": "sender",
          "type": "address"
        }
      ],
      "name": "RoleGranted",
      "type": "event"
    },
    {
      "anonymous": false,
      "inputs": [
        {
          "indexed": true,
          "internalType": "bytes32",
          "name": "role",
          "type": "bytes32"
        },
        {
          "indexed": true,
          "internalType": "address",
          "name": "account",
          "type": "address"
        },
        {
          "indexed": true,
          "internalType": "address",
          "name": "sender",
          "type": "address"
        }
      ],
      "name": "RoleRevoked",
      "type": "event"
    },
    {
      "anonymous": false,
      "inputs": [
        {
          "indexed": false,
          "internalType": "address",
          "name": "user",
          "type": "address"
        },
        {
          "indexed": false,
          "internalType": "uint256",
          "name": "amount",
          "type": "uint256"
        }
      ],
      "name": "collect",
      "type": "event"
    },
    {
      "anonymous": false,
      "inputs": [
        {
          "indexed": false,
          "internalType": "address",
          "name": "user",
          "type": "address"
        },
        {
          "indexed": false,
          "internalType": "uint256",
          "name": "itemId",
          "type": "uint256"
        },
        {
          "indexed": false,
          "internalType": "uint256",
          "name": "percent",
          "type": "uint256"
        },
        {
          "indexed": false,
          "internalType": "uint256",
          "name": "amount",
          "type": "uint256"
        }
      ],
      "name": "deposit",
      "type": "event"
    },
    {
      "anonymous": false,
      "inputs": [
        {
          "indexed": false,
          "internalType": "address",
          "name": "user",
          "type": "address"
        },
        {
          "indexed": false,
          "internalType": "uint256",
          "name": "itemId",
          "type": "uint256"
        },
        {
          "indexed": false,
          "internalType": "uint256",
          "name": "amount",
          "type": "uint256"
        }
      ],
      "name": "profit",
      "type": "event"
    },
    {
      "inputs": [],
      "name": "DEFAULT_ADMIN_ROLE",
      "outputs": [
        {
          "internalType": "bytes32",
          "name": "",
          "type": "bytes32"
        }
      ],
      "stateMutability": "view",
      "type": "function"
    },
    {
      "inputs": [],
      "name": "INCREASE_ROLE",
      "outputs": [
        {
          "internalType": "bytes32",
          "name": "",
          "type": "bytes32"
        }
      ],
      "stateMutability": "view",
      "type": "function"
    },
    {
      "inputs": [],
      "name": "WITHDRAW_ROLE",
      "outputs": [
        {
          "internalType": "bytes32",
          "name": "",
          "type": "bytes32"
        }
      ],
      "stateMutability": "view",
      "type": "function"
    },
    {
      "inputs": [
        {
          "components": [
            {
              "internalType": "uint256",
              "name": "itemId",
              "type": "uint256"
            },
            {
              "internalType": "contract IERC721",
              "name": "nft",
              "type": "address"
            },
            {
              "internalType": "uint256",
              "name": "tokenId",
              "type": "uint256"
            },
            {
              "internalType": "uint256",
              "name": "currentPrice",
              "type": "uint256"
            },
            {
              "internalType": "uint256",
              "name": "previousPrice",
              "type": "uint256"
            },
            {
              "internalType": "address payable",
              "name": "creator",
              "type": "address"
            },
            {
              "internalType": "address payable",
              "name": "owner",
              "type": "address"
            },
            {
              "internalType": "uint256",
              "name": "createdAt",
              "type": "uint256"
            },
            {
              "internalType": "bool",
              "name": "sold",
              "type": "bool"
            }
          ],
          "internalType": "struct ItemTypes.Item",
          "name": "item",
          "type": "tuple"
        },
        {
          "internalType": "address payable",
          "name": "referral1",
          "type": "address"
        },
        {
          "internalType": "address payable",
          "name": "referral2",
          "type": "address"
        }
      ],
      "name": "distribute",
      "outputs": [],
      "stateMutability": "nonpayable",
      "type": "function"
    },
    {
      "inputs": [
        {
          "internalType": "bytes32",
          "name": "role",
          "type": "bytes32"
        }
      ],
      "name": "getRoleAdmin",
      "outputs": [
        {
          "internalType": "bytes32",
          "name": "",
          "type": "bytes32"
        }
      ],
      "stateMutability": "view",
      "type": "function"
    },
    {
      "inputs": [
        {
          "internalType": "uint256",
          "name": "itemId",
          "type": "uint256"
        }
      ],
      "name": "getStaking",
      "outputs": [
        {
          "internalType": "uint256",
          "name": "",
          "type": "uint256"
        }
      ],
      "stateMutability": "view",
      "type": "function"
    },
    {
      "inputs": [
        {
          "internalType": "bytes32",
          "name": "role",
          "type": "bytes32"
        },
        {
          "internalType": "address",
          "name": "account",
          "type": "address"
        }
      ],
      "name": "grantRole",
      "outputs": [],
      "stateMutability": "nonpayable",
      "type": "function"
    },
    {
      "inputs": [
        {
          "internalType": "bytes32",
          "name": "role",
          "type": "bytes32"
        },
        {
          "internalType": "address",
          "name": "account",
          "type": "address"
        }
      ],
      "name": "hasRole",
      "outputs": [
        {
          "internalType": "bool",
          "name": "",
          "type": "bool"
        }
      ],
      "stateMutability": "view",
      "type": "function"
    },
    {
      "inputs": [
        {
          "internalType": "uint256",
          "name": "itemId",
          "type": "uint256"
        },
        {
          "internalType": "uint256",
          "name": "value",
          "type": "uint256"
        }
      ],
      "name": "increase",
      "outputs": [],
      "stateMutability": "nonpayable",
      "type": "function"
    },
    {
      "inputs": [],
      "name": "organization",
      "outputs": [
        {
          "internalType": "address payable",
          "name": "",
          "type": "address"
        }
      ],
      "stateMutability": "view",
      "type": "function"
    },
    {
      "inputs": [
        {
          "internalType": "bytes32",
          "name": "role",
          "type": "bytes32"
        },
        {
          "internalType": "address",
          "name": "account",
          "type": "address"
        }
      ],
      "name": "renounceRole",
      "outputs": [],
      "stateMutability": "nonpayable",
      "type": "function"
    },
    {
      "inputs": [
        {
          "internalType": "bytes32",
          "name": "role",
          "type": "bytes32"
        },
        {
          "internalType": "address",
          "name": "account",
          "type": "address"
        }
      ],
      "name": "revokeRole",
      "outputs": [],
      "stateMutability": "nonpayable",
      "type": "function"
    },
    {
      "inputs": [],
      "name": "stakingPercent",
      "outputs": [
        {
          "internalType": "uint256",
          "name": "",
          "type": "uint256"
        }
      ],
      "stateMutability": "view",
      "type": "function"
    },
    {
      "inputs": [
        {
          "internalType": "bytes4",
          "name": "interfaceId",
          "type": "bytes4"
        }
      ],
      "name": "supportsInterface",
      "outputs": [
        {
          "internalType": "bool",
          "name": "",
          "type": "bool"
        }
      ],
      "stateMutability": "view",
      "type": "function"
    },
    {
      "inputs": [
        {
          "internalType": "uint256",
          "name": "amount",
          "type": "uint256"
        }
      ],
      "name": "takeBack",
      "outputs": [],
      "stateMutability": "nonpayable",
      "type": "function"
    },
    {
      "stateMutability": "payable",
      "type": "receive"
    }
  ],
  "bytecode": "0x60a06040523480156200001157600080fd5b5060405162002459380380620024598339818101604052810190620000379190620002f4565b60018081905550620000536000801b33620000d660201b60201c565b620000857f7a8dc26796a1e50e6e190b70259f58f6a4edd5b22280ceecc82b687b8e98286933620000d660201b60201c565b816080818152505080600260006101000a81548173ffffffffffffffffffffffffffffffffffffffff021916908373ffffffffffffffffffffffffffffffffffffffff16021790555050506200033b565b620000e88282620000ec60201b60201c565b5050565b620000fe8282620001dd60201b60201c565b620001d957600160008084815260200190815260200160002060000160008373ffffffffffffffffffffffffffffffffffffffff1673ffffffffffffffffffffffffffffffffffffffff16815260200190815260200160002060006101000a81548160ff0219169083151502179055506200017e6200024760201b60201c565b73ffffffffffffffffffffffffffffffffffffffff168173ffffffffffffffffffffffffffffffffffffffff16837f2f8788117e7eff1d82e926ec794901d17c78024a50270940304540a733656f0d60405160405180910390a45b5050565b600080600084815260200190815260200160002060000160008373ffffffffffffffffffffffffffffffffffffffff1673ffffffffffffffffffffffffffffffffffffffff16815260200190815260200160002060009054906101000a900460ff16905092915050565b600033905090565b600080fd5b6000819050919050565b620002698162000254565b81146200027557600080fd5b50565b60008151905062000289816200025e565b92915050565b600073ffffffffffffffffffffffffffffffffffffffff82169050919050565b6000620002bc826200028f565b9050919050565b620002ce81620002af565b8114620002da57600080fd5b50565b600081519050620002ee81620002c3565b92915050565b600080604083850312156200030e576200030d6200024f565b5b60006200031e8582860162000278565b92505060206200033185828601620002dd565b9150509250929050565b6080516120fb6200035e600039600081816105d30152610d7801526120fb6000f3fe6080604052600436106100ec5760003560e01c8063a217fddf1161008a578063dd69583811610059578063dd69583814610313578063de75f1c31461033c578063e02023a114610365578063e353a3ad14610390576100f3565b8063a217fddf14610269578063b430bea514610294578063be1193ea146102bf578063d547741f146102ea576100f3565b80632f2ff15d116100c65780632f2ff15d1461019d57806331eb3f37146101c657806336568abe1461020357806391d148541461022c576100f3565b806301ffc9a7146100f857806323bd4d7a14610135578063248a9ca314610160576100f3565b366100f357005b600080fd5b34801561010457600080fd5b5061011f600480360381019061011a9190611400565b6103b9565b60405161012c9190611448565b60405180910390f35b34801561014157600080fd5b5061014a610433565b60405161015791906114a4565b60405180910390f35b34801561016c57600080fd5b50610187600480360381019061018291906114f5565b610459565b6040516101949190611531565b60405180910390f35b3480156101a957600080fd5b506101c460048036038101906101bf919061158a565b610478565b005b3480156101d257600080fd5b506101ed60048036038101906101e89190611600565b610499565b6040516101fa919061163c565b60405180910390f35b34801561020f57600080fd5b5061022a6004803603810190610225919061158a565b6104b9565b005b34801561023857600080fd5b50610253600480360381019061024e919061158a565b61053c565b6040516102609190611448565b60405180910390f35b34801561027557600080fd5b5061027e6105a6565b60405161028b9190611531565b60405180910390f35b3480156102a057600080fd5b506102a96105ad565b6040516102b69190611531565b60405180910390f35b3480156102cb57600080fd5b506102d46105d1565b6040516102e1919061163c565b60405180910390f35b3480156102f657600080fd5b50610311600480360381019061030c919061158a565b6105f5565b005b34801561031f57600080fd5b5061033a60048036038101906103359190611600565b610616565b005b34801561034857600080fd5b50610363600480360381019061035e919061185e565b610755565b005b34801561037157600080fd5b5061037a610c83565b6040516103879190611531565b60405180910390f35b34801561039c57600080fd5b506103b760048036038101906103b291906118b4565b610ca7565b005b60007f7965db0b000000000000000000000000000000000000000000000000000000007bffffffffffffffffffffffffffffffffffffffffffffffffffffffff1916827bffffffffffffffffffffffffffffffffffffffffffffffffffffffff1916148061042c575061042b82610db4565b5b9050919050565b600260009054906101000a900473ffffffffffffffffffffffffffffffffffffffff1681565b6000806000838152602001908152602001600020600101549050919050565b61048182610459565b61048a81610e1e565b6104948383610e32565b505050565b600060036000838152602001908152602001600020600001549050919050565b6104c1610f12565b73ffffffffffffffffffffffffffffffffffffffff168173ffffffffffffffffffffffffffffffffffffffff161461052e576040517f08c379a000000000000000000000000000000000000000000000000000000000815260040161052590611977565b60405180910390fd5b6105388282610f1a565b5050565b600080600084815260200190815260200160002060000160008373ffffffffffffffffffffffffffffffffffffffff1673ffffffffffffffffffffffffffffffffffffffff16815260200190815260200160002060009054906101000a900460ff16905092915050565b6000801b81565b7f9ddf52339f0dbdcb0c416ccf917387fb75fd64b3bcdf926c8dbb00d7165317c081565b7f000000000000000000000000000000000000000000000000000000000000000081565b6105fe82610459565b61060781610e1e565b6106118383610f1a565b505050565b61061e610ffb565b6106487f7a8dc26796a1e50e6e190b70259f58f6a4edd5b22280ceecc82b687b8e9828693361053c565b610687576040517f08c379a000000000000000000000000000000000000000000000000000000000815260040161067e90611a09565b60405180910390fd5b600081116106ca576040517f08c379a00000000000000000000000000000000000000000000000000000000081526004016106c190611a75565b60405180910390fd5b3373ffffffffffffffffffffffffffffffffffffffff166108fc829081150290604051600060405180830381858888f19350505050158015610710573d6000803e3d6000fd5b507f6b8357ac28c4cae575efe44c19edaa71947dd655fbcfe4cdecb7e275854829b13382604051610742929190611aa4565b60405180910390a161075261104a565b50565b61077f7f7a8dc26796a1e50e6e190b70259f58f6a4edd5b22280ceecc82b687b8e9828693361053c565b6107be576040517f08c379a00000000000000000000000000000000000000000000000000000000081526004016107b590611a09565b60405180910390fd5b6000600360008560000151815260200190815260200160002090506224ea008160010154426107ed9190611afc565b1161082d576040517f08c379a000000000000000000000000000000000000000000000000000000000815260040161082490611b7c565b60405180910390fd5b600061085a600161084c6001856000015461105390919063ffffffff16565b61106990919063ffffffff16565b90506000610889600161087b6001866000015461105390919063ffffffff16565b61106990919063ffffffff16565b905060006108bb6101d36108ad620186a0876000015461105390919063ffffffff16565b61106990919063ffffffff16565b905060006108eb60036108dd612710886000015461105390919063ffffffff16565b61106990919063ffffffff16565b9050600061091c600361090e620186a0896000015461105390919063ffffffff16565b61106990919063ffffffff16565b90508860a0015173ffffffffffffffffffffffffffffffffffffffff166108fc869081150290604051600060405180830381858888f19350505050158015610968573d6000803e3d6000fd5b508860c0015173ffffffffffffffffffffffffffffffffffffffff166108fc859081150290604051600060405180830381858888f193505050501580156109b3573d6000803e3d6000fd5b50600260009054906101000a900473ffffffffffffffffffffffffffffffffffffffff1673ffffffffffffffffffffffffffffffffffffffff166108fc849081150290604051600060405180830381858888f19350505050158015610a1c573d6000803e3d6000fd5b506000610a4484610a36878961107f90919063ffffffff16565b61107f90919063ffffffff16565b9050600073ffffffffffffffffffffffffffffffffffffffff168973ffffffffffffffffffffffffffffffffffffffff1614610ad7578873ffffffffffffffffffffffffffffffffffffffff166108fc849081150290604051600060405180830381858888f19350505050158015610ac0573d6000803e3d6000fd5b50610ad4838261107f90919063ffffffff16565b90505b600073ffffffffffffffffffffffffffffffffffffffff168873ffffffffffffffffffffffffffffffffffffffff1614610b68578773ffffffffffffffffffffffffffffffffffffffff166108fc839081150290604051600060405180830381858888f19350505050158015610b51573d6000803e3d6000fd5b50610b65828261107f90919063ffffffff16565b90505b428760010181905550610b8881886000015461109590919063ffffffff16565b87600001819055507f1bfbbc4bfd696d0839cee9844b3f851e2320cc642887491844452e4ec5e273e68a60a001518b6000015188604051610bcb93929190611bfb565b60405180910390a17f1bfbbc4bfd696d0839cee9844b3f851e2320cc642887491844452e4ec5e273e68a60c001518b6000015187604051610c0e93929190611bfb565b60405180910390a17f1bfbbc4bfd696d0839cee9844b3f851e2320cc642887491844452e4ec5e273e6600260009054906101000a900473ffffffffffffffffffffffffffffffffffffffff168b6000015186604051610c6f93929190611bfb565b60405180910390a150505050505050505050565b7f7a8dc26796a1e50e6e190b70259f58f6a4edd5b22280ceecc82b687b8e98286981565b610cd17f9ddf52339f0dbdcb0c416ccf917387fb75fd64b3bcdf926c8dbb00d7165317c03361053c565b610d10576040517f08c379a0000000000000000000000000000000000000000000000000000000008152600401610d0790611ca4565b60405180910390fd5b610d3981600360008581526020019081526020016000206000015461107f90919063ffffffff16565b60036000848152602001908152602001600020600001819055507fce88b439105666372c4d9af0a307046ef3c65c23a8533efd717dd2f04dd87e9333837f000000000000000000000000000000000000000000000000000000000000000084604051610da89493929190611cc4565b60405180910390a15050565b60007f01ffc9a7000000000000000000000000000000000000000000000000000000007bffffffffffffffffffffffffffffffffffffffffffffffffffffffff1916827bffffffffffffffffffffffffffffffffffffffffffffffffffffffff1916149050919050565b610e2f81610e2a610f12565b6110ab565b50565b610e3c828261053c565b610f0e57600160008084815260200190815260200160002060000160008373ffffffffffffffffffffffffffffffffffffffff1673ffffffffffffffffffffffffffffffffffffffff16815260200190815260200160002060006101000a81548160ff021916908315150217905550610eb3610f12565b73ffffffffffffffffffffffffffffffffffffffff168173ffffffffffffffffffffffffffffffffffffffff16837f2f8788117e7eff1d82e926ec794901d17c78024a50270940304540a733656f0d60405160405180910390a45b5050565b600033905090565b610f24828261053c565b15610ff757600080600084815260200190815260200160002060000160008373ffffffffffffffffffffffffffffffffffffffff1673ffffffffffffffffffffffffffffffffffffffff16815260200190815260200160002060006101000a81548160ff021916908315150217905550610f9c610f12565b73ffffffffffffffffffffffffffffffffffffffff168173ffffffffffffffffffffffffffffffffffffffff16837ff6391f5c32d9c69d2a47ea670b442974b53935d1edc7fd64eb21e047a839171b60405160405180910390a45b5050565b600260015403611040576040517f08c379a000000000000000000000000000000000000000000000000000000000815260040161103790611d55565b60405180910390fd5b6002600181905550565b60018081905550565b600081836110619190611da4565b905092915050565b600081836110779190611dd5565b905092915050565b6000818361108d9190611e2f565b905092915050565b600081836110a39190611afc565b905092915050565b6110b5828261053c565b61112c576110c281611130565b6110d08360001c602061115d565b6040516020016110e1929190611f6c565b6040516020818303038152906040526040517f08c379a00000000000000000000000000000000000000000000000000000000081526004016111239190611fdf565b60405180910390fd5b5050565b60606111568273ffffffffffffffffffffffffffffffffffffffff16601460ff1661115d565b9050919050565b6060600060028360026111709190611dd5565b61117a9190611e2f565b67ffffffffffffffff8111156111935761119261166d565b5b6040519080825280601f01601f1916602001820160405280156111c55781602001600182028036833780820191505090505b5090507f3000000000000000000000000000000000000000000000000000000000000000816000815181106111fd576111fc612001565b5b60200101907effffffffffffffffffffffffffffffffffffffffffffffffffffffffffffff1916908160001a9053507f78000000000000000000000000000000000000000000000000000000000000008160018151811061126157611260612001565b5b60200101907effffffffffffffffffffffffffffffffffffffffffffffffffffffffffffff1916908160001a905350600060018460026112a19190611dd5565b6112ab9190611e2f565b90505b600181111561134b577f3031323334353637383961626364656600000000000000000000000000000000600f8616601081106112ed576112ec612001565b5b1a60f81b82828151811061130457611303612001565b5b60200101907effffffffffffffffffffffffffffffffffffffffffffffffffffffffffffff1916908160001a905350600485901c94508061134490612030565b90506112ae565b506000841461138f576040517f08c379a0000000000000000000000000000000000000000000000000000000008152600401611386906120a5565b60405180910390fd5b8091505092915050565b6000604051905090565b600080fd5b60007fffffffff0000000000000000000000000000000000000000000000000000000082169050919050565b6113dd816113a8565b81146113e857600080fd5b50565b6000813590506113fa816113d4565b92915050565b600060208284031215611416576114156113a3565b5b6000611424848285016113eb565b91505092915050565b60008115159050919050565b6114428161142d565b82525050565b600060208201905061145d6000830184611439565b92915050565b600073ffffffffffffffffffffffffffffffffffffffff82169050919050565b600061148e82611463565b9050919050565b61149e81611483565b82525050565b60006020820190506114b96000830184611495565b92915050565b6000819050919050565b6114d2816114bf565b81146114dd57600080fd5b50565b6000813590506114ef816114c9565b92915050565b60006020828403121561150b5761150a6113a3565b5b6000611519848285016114e0565b91505092915050565b61152b816114bf565b82525050565b60006020820190506115466000830184611522565b92915050565b600061155782611463565b9050919050565b6115678161154c565b811461157257600080fd5b50565b6000813590506115848161155e565b92915050565b600080604083850312156115a1576115a06113a3565b5b60006115af858286016114e0565b92505060206115c085828601611575565b9150509250929050565b6000819050919050565b6115dd816115ca565b81146115e857600080fd5b50565b6000813590506115fa816115d4565b92915050565b600060208284031215611616576116156113a3565b5b6000611624848285016115eb565b91505092915050565b611636816115ca565b82525050565b6000602082019050611651600083018461162d565b92915050565b600080fd5b6000601f19601f8301169050919050565b7f4e487b7100000000000000000000000000000000000000000000000000000000600052604160045260246000fd5b6116a58261165c565b810181811067ffffffffffffffff821117156116c4576116c361166d565b5b80604052505050565b60006116d7611399565b90506116e3828261169c565b919050565b60006116f38261154c565b9050919050565b611703816116e8565b811461170e57600080fd5b50565b600081359050611720816116fa565b92915050565b61172f81611483565b811461173a57600080fd5b50565b60008135905061174c81611726565b92915050565b61175b8161142d565b811461176657600080fd5b50565b60008135905061177881611752565b92915050565b6000610120828403121561179557611794611657565b5b6117a06101206116cd565b905060006117b0848285016115eb565b60008301525060206117c484828501611711565b60208301525060406117d8848285016115eb565b60408301525060606117ec848285016115eb565b6060830152506080611800848285016115eb565b60808301525060a06118148482850161173d565b60a08301525060c06118288482850161173d565b60c08301525060e061183c848285016115eb565b60e08301525061010061185184828501611769565b6101008301525092915050565b60008060006101608486031215611878576118776113a3565b5b60006118868682870161177e565b9350506101206118988682870161173d565b9250506101406118aa8682870161173d565b9150509250925092565b600080604083850312156118cb576118ca6113a3565b5b60006118d9858286016115eb565b92505060206118ea858286016115eb565b9150509250929050565b600082825260208201905092915050565b7f416363657373436f6e74726f6c3a2063616e206f6e6c792072656e6f756e636560008201527f20726f6c657320666f722073656c660000000000000000000000000000000000602082015250565b6000611961602f836118f4565b915061196c82611905565b604082019050919050565b6000602082019050818103600083015261199081611954565b9050919050565b7f43616c6c657220686173206e6f74207769746864726177616c207065726d697360008201527f73696f6e73000000000000000000000000000000000000000000000000000000602082015250565b60006119f36025836118f4565b91506119fe82611997565b604082019050919050565b60006020820190508181036000830152611a22816119e6565b9050919050565b7f416d6f756e74206d75737420626520677265617465722074686174207a65726f600082015250565b6000611a5f6020836118f4565b9150611a6a82611a29565b602082019050919050565b60006020820190508181036000830152611a8e81611a52565b9050919050565b611a9e8161154c565b82525050565b6000604082019050611ab96000830185611a95565b611ac6602083018461162d565b9392505050565b7f4e487b7100000000000000000000000000000000000000000000000000000000600052601160045260246000fd5b6000611b07826115ca565b9150611b12836115ca565b9250828203905081811115611b2a57611b29611acd565b5b92915050565b7f546f6f206561726c790000000000000000000000000000000000000000000000600082015250565b6000611b666009836118f4565b9150611b7182611b30565b602082019050919050565b60006020820190508181036000830152611b9581611b59565b9050919050565b6000819050919050565b6000611bc1611bbc611bb784611463565b611b9c565b611463565b9050919050565b6000611bd382611ba6565b9050919050565b6000611be582611bc8565b9050919050565b611bf581611bda565b82525050565b6000606082019050611c106000830186611bec565b611c1d602083018561162d565b611c2a604083018461162d565b949350505050565b7f43616c6c657220686173206e6f7420696e637265617365207065726d6973736960008201527f6f6e730000000000000000000000000000000000000000000000000000000000602082015250565b6000611c8e6023836118f4565b9150611c9982611c32565b604082019050919050565b60006020820190508181036000830152611cbd81611c81565b9050919050565b6000608082019050611cd96000830187611a95565b611ce6602083018661162d565b611cf3604083018561162d565b611d00606083018461162d565b95945050505050565b7f5265656e7472616e637947756172643a207265656e7472616e742063616c6c00600082015250565b6000611d3f601f836118f4565b9150611d4a82611d09565b602082019050919050565b60006020820190508181036000830152611d6e81611d32565b9050919050565b7f4e487b7100000000000000000000000000000000000000000000000000000000600052601260045260246000fd5b6000611daf826115ca565b9150611dba836115ca565b925082611dca57611dc9611d75565b5b828204905092915050565b6000611de0826115ca565b9150611deb836115ca565b9250817fffffffffffffffffffffffffffffffffffffffffffffffffffffffffffffffff0483118215151615611e2457611e23611acd565b5b828202905092915050565b6000611e3a826115ca565b9150611e45836115ca565b9250828201905080821115611e5d57611e5c611acd565b5b92915050565b600081905092915050565b7f416363657373436f6e74726f6c3a206163636f756e7420000000000000000000600082015250565b6000611ea4601783611e63565b9150611eaf82611e6e565b601782019050919050565b600081519050919050565b60005b83811015611ee3578082015181840152602081019050611ec8565b60008484015250505050565b6000611efa82611eba565b611f048185611e63565b9350611f14818560208601611ec5565b80840191505092915050565b7f206973206d697373696e6720726f6c6520000000000000000000000000000000600082015250565b6000611f56601183611e63565b9150611f6182611f20565b601182019050919050565b6000611f7782611e97565b9150611f838285611eef565b9150611f8e82611f49565b9150611f9a8284611eef565b91508190509392505050565b6000611fb182611eba565b611fbb81856118f4565b9350611fcb818560208601611ec5565b611fd48161165c565b840191505092915050565b60006020820190508181036000830152611ff98184611fa6565b905092915050565b7f4e487b7100000000000000000000000000000000000000000000000000000000600052603260045260246000fd5b600061203b826115ca565b91506000820361204e5761204d611acd565b5b600182039050919050565b7f537472696e67733a20686578206c656e67746820696e73756666696369656e74600082015250565b600061208f6020836118f4565b915061209a82612059565b602082019050919050565b600060208201905081810360008301526120be81612082565b905091905056fea2646970667358221220a36da24e02026a7eee595924212a692bf836690db4f5210ed8eec32b34f395a464736f6c63430008100033",
  "linkReferences": {},
  "deployedLinkReferences": {}
}