{
  "_format": "hh-sol-artifact-1",
  "contractName": "Staking",
  "sourceName": "contracts/Staking.sol",
  "abi": [
    {
      "inputs": [
        {
          "internalType": "uint256",
          "name": "_stakingPercent",
          "type": "uint256"
        },
        {
          "internalType": "address",
          "name": "_organization",
          "type": "address"
        }
      ],
      "stateMutability": "nonpayable",
      "type": "constructor"
    },
    {
      "anonymous": false,
      "inputs": [
        {
          "indexed": true,
          "internalType": "bytes32",
          "name": "role",
          "type": "bytes32"
        },
        {
          "indexed": true,
          "internalType": "bytes32",
          "name": "previousAdminRole",
          "type": "bytes32"
        },
        {
          "indexed": true,
          "internalType": "bytes32",
          "name": "newAdminRole",
          "type": "bytes32"
        }
      ],
      "name": "RoleAdminChanged",
      "type": "event"
    },
    {
      "anonymous": false,
      "inputs": [
        {
          "indexed": true,
          "internalType": "bytes32",
          "name": "role",
          "type": "bytes32"
        },
        {
          "indexed": true,
          "internalType": "address",
          "name": "account",
          "type": "address"
        },
        {
          "indexed": true,
          "internalType": "address",
          "name": "sender",
          "type": "address"
        }
      ],
      "name": "RoleGranted",
      "type": "event"
    },
    {
      "anonymous": false,
      "inputs": [
        {
          "indexed": true,
          "internalType": "bytes32",
          "name": "role",
          "type": "bytes32"
        },
        {
          "indexed": true,
          "internalType": "address",
          "name": "account",
          "type": "address"
        },
        {
          "indexed": true,
          "internalType": "address",
          "name": "sender",
          "type": "address"
        }
      ],
      "name": "RoleRevoked",
      "type": "event"
    },
    {
      "anonymous": false,
      "inputs": [
        {
          "indexed": false,
          "internalType": "address",
          "name": "user",
          "type": "address"
        },
        {
          "indexed": false,
          "internalType": "uint256",
          "name": "amount",
          "type": "uint256"
        }
      ],
      "name": "collect",
      "type": "event"
    },
    {
      "anonymous": false,
      "inputs": [
        {
          "indexed": false,
          "internalType": "address",
          "name": "user",
          "type": "address"
        },
        {
          "indexed": false,
          "internalType": "uint256",
          "name": "itemId",
          "type": "uint256"
        },
        {
          "indexed": false,
          "internalType": "uint256",
          "name": "percent",
          "type": "uint256"
        },
        {
          "indexed": false,
          "internalType": "uint256",
          "name": "amount",
          "type": "uint256"
        }
      ],
      "name": "deposit",
      "type": "event"
    },
    {
      "anonymous": false,
      "inputs": [
        {
          "indexed": false,
          "internalType": "address",
          "name": "user",
          "type": "address"
        },
        {
          "indexed": false,
          "internalType": "uint256",
          "name": "itemId",
          "type": "uint256"
        },
        {
          "indexed": false,
          "internalType": "uint256",
          "name": "amount",
          "type": "uint256"
        }
      ],
      "name": "profit",
      "type": "event"
    },
    {
      "inputs": [],
      "name": "DEFAULT_ADMIN_ROLE",
      "outputs": [
        {
          "internalType": "bytes32",
          "name": "",
          "type": "bytes32"
        }
      ],
      "stateMutability": "view",
      "type": "function"
    },
    {
      "inputs": [],
      "name": "INCREASE_ROLE",
      "outputs": [
        {
          "internalType": "bytes32",
          "name": "",
          "type": "bytes32"
        }
      ],
      "stateMutability": "view",
      "type": "function"
    },
    {
      "inputs": [],
      "name": "WITHDRAW_ROLE",
      "outputs": [
        {
          "internalType": "bytes32",
          "name": "",
          "type": "bytes32"
        }
      ],
      "stateMutability": "view",
      "type": "function"
    },
    {
      "inputs": [
        {
          "components": [
            {
              "internalType": "uint256",
              "name": "itemId",
              "type": "uint256"
            },
            {
              "internalType": "contract IERC721",
              "name": "nft",
              "type": "address"
            },
            {
              "internalType": "uint256",
              "name": "tokenId",
              "type": "uint256"
            },
            {
              "internalType": "uint256",
              "name": "currentPrice",
              "type": "uint256"
            },
            {
              "internalType": "uint256",
              "name": "previousPrice",
              "type": "uint256"
            },
            {
              "internalType": "address payable",
              "name": "creator",
              "type": "address"
            },
            {
              "internalType": "address payable",
              "name": "owner",
              "type": "address"
            },
            {
              "internalType": "uint256",
              "name": "createdAt",
              "type": "uint256"
            },
            {
              "internalType": "bool",
              "name": "sold",
              "type": "bool"
            }
          ],
          "internalType": "struct ItemTypes.Item",
          "name": "item",
          "type": "tuple"
        },
        {
          "internalType": "address payable",
          "name": "referral1",
          "type": "address"
        },
        {
          "internalType": "address payable",
          "name": "referral2",
          "type": "address"
        }
      ],
      "name": "distribute",
      "outputs": [],
      "stateMutability": "nonpayable",
      "type": "function"
    },
    {
      "inputs": [
        {
          "internalType": "bytes32",
          "name": "role",
          "type": "bytes32"
        }
      ],
      "name": "getRoleAdmin",
      "outputs": [
        {
          "internalType": "bytes32",
          "name": "",
          "type": "bytes32"
        }
      ],
      "stateMutability": "view",
      "type": "function"
    },
    {
      "inputs": [
        {
          "internalType": "uint256",
          "name": "itemId",
          "type": "uint256"
        }
      ],
      "name": "getStaking",
      "outputs": [
        {
          "internalType": "uint256",
          "name": "",
          "type": "uint256"
        }
      ],
      "stateMutability": "view",
      "type": "function"
    },
    {
      "inputs": [
        {
          "internalType": "bytes32",
          "name": "role",
          "type": "bytes32"
        },
        {
          "internalType": "address",
          "name": "account",
          "type": "address"
        }
      ],
      "name": "grantRole",
      "outputs": [],
      "stateMutability": "nonpayable",
      "type": "function"
    },
    {
      "inputs": [
        {
          "internalType": "bytes32",
          "name": "role",
          "type": "bytes32"
        },
        {
          "internalType": "address",
          "name": "account",
          "type": "address"
        }
      ],
      "name": "hasRole",
      "outputs": [
        {
          "internalType": "bool",
          "name": "",
          "type": "bool"
        }
      ],
      "stateMutability": "view",
      "type": "function"
    },
    {
      "inputs": [
        {
          "internalType": "uint256",
          "name": "itemId",
          "type": "uint256"
        },
        {
          "internalType": "uint256",
          "name": "value",
          "type": "uint256"
        }
      ],
      "name": "increase",
      "outputs": [],
      "stateMutability": "nonpayable",
      "type": "function"
    },
    {
      "inputs": [],
      "name": "organization",
      "outputs": [
        {
          "internalType": "address payable",
          "name": "",
          "type": "address"
        }
      ],
      "stateMutability": "view",
      "type": "function"
    },
    {
      "inputs": [
        {
          "internalType": "bytes32",
          "name": "role",
          "type": "bytes32"
        },
        {
          "internalType": "address",
          "name": "account",
          "type": "address"
        }
      ],
      "name": "renounceRole",
      "outputs": [],
      "stateMutability": "nonpayable",
      "type": "function"
    },
    {
      "inputs": [
        {
          "internalType": "bytes32",
          "name": "role",
          "type": "bytes32"
        },
        {
          "internalType": "address",
          "name": "account",
          "type": "address"
        }
      ],
      "name": "revokeRole",
      "outputs": [],
      "stateMutability": "nonpayable",
      "type": "function"
    },
    {
      "inputs": [],
      "name": "stakingPercent",
      "outputs": [
        {
          "internalType": "uint256",
          "name": "",
          "type": "uint256"
        }
      ],
      "stateMutability": "view",
      "type": "function"
    },
    {
      "inputs": [
        {
          "internalType": "bytes4",
          "name": "interfaceId",
          "type": "bytes4"
        }
      ],
      "name": "supportsInterface",
      "outputs": [
        {
          "internalType": "bool",
          "name": "",
          "type": "bool"
        }
      ],
      "stateMutability": "view",
      "type": "function"
    },
    {
      "inputs": [
        {
          "internalType": "uint256",
          "name": "amount",
          "type": "uint256"
        }
      ],
      "name": "takeBack",
      "outputs": [],
      "stateMutability": "nonpayable",
      "type": "function"
    },
    {
      "stateMutability": "payable",
      "type": "receive"
    }
  ],
  "bytecode": "0x60a06040523480156200001157600080fd5b5060405162002433380380620024338339818101604052810190620000379190620002f4565b60018081905550620000536000801b33620000d660201b60201c565b620000857f7a8dc26796a1e50e6e190b70259f58f6a4edd5b22280ceecc82b687b8e98286933620000d660201b60201c565b816080818152505080600260006101000a81548173ffffffffffffffffffffffffffffffffffffffff021916908373ffffffffffffffffffffffffffffffffffffffff16021790555050506200033b565b620000e88282620000ec60201b60201c565b5050565b620000fe8282620001dd60201b60201c565b620001d957600160008084815260200190815260200160002060000160008373ffffffffffffffffffffffffffffffffffffffff1673ffffffffffffffffffffffffffffffffffffffff16815260200190815260200160002060006101000a81548160ff0219169083151502179055506200017e6200024760201b60201c565b73ffffffffffffffffffffffffffffffffffffffff168173ffffffffffffffffffffffffffffffffffffffff16837f2f8788117e7eff1d82e926ec794901d17c78024a50270940304540a733656f0d60405160405180910390a45b5050565b600080600084815260200190815260200160002060000160008373ffffffffffffffffffffffffffffffffffffffff1673ffffffffffffffffffffffffffffffffffffffff16815260200190815260200160002060009054906101000a900460ff16905092915050565b600033905090565b600080fd5b6000819050919050565b620002698162000254565b81146200027557600080fd5b50565b60008151905062000289816200025e565b92915050565b600073ffffffffffffffffffffffffffffffffffffffff82169050919050565b6000620002bc826200028f565b9050919050565b620002ce81620002af565b8114620002da57600080fd5b50565b600081519050620002ee81620002c3565b92915050565b600080604083850312156200030e576200030d6200024f565b5b60006200031e8582860162000278565b92505060206200033185828601620002dd565b9150509250929050565b6080516120d56200035e600039600081816105d30152610d5201526120d56000f3fe6080604052600436106100ec5760003560e01c8063a217fddf1161008a578063dd69583811610059578063dd69583814610313578063de75f1c31461033c578063e02023a114610365578063e353a3ad14610390576100f3565b8063a217fddf14610269578063b430bea514610294578063be1193ea146102bf578063d547741f146102ea576100f3565b80632f2ff15d116100c65780632f2ff15d1461019d57806331eb3f37146101c657806336568abe1461020357806391d148541461022c576100f3565b806301ffc9a7146100f857806323bd4d7a14610135578063248a9ca314610160576100f3565b366100f357005b600080fd5b34801561010457600080fd5b5061011f600480360381019061011a91906113da565b6103b9565b60405161012c9190611422565b60405180910390f35b34801561014157600080fd5b5061014a610433565b604051610157919061147e565b60405180910390f35b34801561016c57600080fd5b50610187600480360381019061018291906114cf565b610459565b604051610194919061150b565b60405180910390f35b3480156101a957600080fd5b506101c460048036038101906101bf9190611564565b610478565b005b3480156101d257600080fd5b506101ed60048036038101906101e891906115da565b610499565b6040516101fa9190611616565b60405180910390f35b34801561020f57600080fd5b5061022a60048036038101906102259190611564565b6104b9565b005b34801561023857600080fd5b50610253600480360381019061024e9190611564565b61053c565b6040516102609190611422565b60405180910390f35b34801561027557600080fd5b5061027e6105a6565b60405161028b919061150b565b60405180910390f35b3480156102a057600080fd5b506102a96105ad565b6040516102b6919061150b565b60405180910390f35b3480156102cb57600080fd5b506102d46105d1565b6040516102e19190611616565b60405180910390f35b3480156102f657600080fd5b50610311600480360381019061030c9190611564565b6105f5565b005b34801561031f57600080fd5b5061033a600480360381019061033591906115da565b610616565b005b34801561034857600080fd5b50610363600480360381019061035e9190611838565b610755565b005b34801561037157600080fd5b5061037a610c5d565b604051610387919061150b565b60405180910390f35b34801561039c57600080fd5b506103b760048036038101906103b2919061188e565b610c81565b005b60007f7965db0b000000000000000000000000000000000000000000000000000000007bffffffffffffffffffffffffffffffffffffffffffffffffffffffff1916827bffffffffffffffffffffffffffffffffffffffffffffffffffffffff1916148061042c575061042b82610d8e565b5b9050919050565b600260009054906101000a900473ffffffffffffffffffffffffffffffffffffffff1681565b6000806000838152602001908152602001600020600101549050919050565b61048182610459565b61048a81610df8565b6104948383610e0c565b505050565b600060036000838152602001908152602001600020600001549050919050565b6104c1610eec565b73ffffffffffffffffffffffffffffffffffffffff168173ffffffffffffffffffffffffffffffffffffffff161461052e576040517f08c379a000000000000000000000000000000000000000000000000000000000815260040161052590611951565b60405180910390fd5b6105388282610ef4565b5050565b600080600084815260200190815260200160002060000160008373ffffffffffffffffffffffffffffffffffffffff1673ffffffffffffffffffffffffffffffffffffffff16815260200190815260200160002060009054906101000a900460ff16905092915050565b6000801b81565b7f9ddf52339f0dbdcb0c416ccf917387fb75fd64b3bcdf926c8dbb00d7165317c081565b7f000000000000000000000000000000000000000000000000000000000000000081565b6105fe82610459565b61060781610df8565b6106118383610ef4565b505050565b61061e610fd5565b6106487f7a8dc26796a1e50e6e190b70259f58f6a4edd5b22280ceecc82b687b8e9828693361053c565b610687576040517f08c379a000000000000000000000000000000000000000000000000000000000815260040161067e906119e3565b60405180910390fd5b600081116106ca576040517f08c379a00000000000000000000000000000000000000000000000000000000081526004016106c190611a4f565b60405180910390fd5b3373ffffffffffffffffffffffffffffffffffffffff166108fc829081150290604051600060405180830381858888f19350505050158015610710573d6000803e3d6000fd5b507f6b8357ac28c4cae575efe44c19edaa71947dd655fbcfe4cdecb7e275854829b13382604051610742929190611a7e565b60405180910390a1610752611024565b50565b61077f7f7a8dc26796a1e50e6e190b70259f58f6a4edd5b22280ceecc82b687b8e9828693361053c565b6107be576040517f08c379a00000000000000000000000000000000000000000000000000000000081526004016107b5906119e3565b60405180910390fd5b6000600360008560000151815260200190815260200160002090506224ea008160010154426107ed9190611ad6565b1161082d576040517f08c379a000000000000000000000000000000000000000000000000000000000815260040161082490611b56565b60405180910390fd5b60006108476064836000015461102d90919063ffffffff16565b905060006108636014846000015461102d90919063ffffffff16565b905060006108956101d3610887620186a0876000015461102d90919063ffffffff16565b61104390919063ffffffff16565b905060006108c560036108b7612710886000015461102d90919063ffffffff16565b61104390919063ffffffff16565b905060006108f660036108e8620186a0896000015461102d90919063ffffffff16565b61104390919063ffffffff16565b90508860a0015173ffffffffffffffffffffffffffffffffffffffff166108fc869081150290604051600060405180830381858888f19350505050158015610942573d6000803e3d6000fd5b508860c0015173ffffffffffffffffffffffffffffffffffffffff166108fc859081150290604051600060405180830381858888f1935050505015801561098d573d6000803e3d6000fd5b50600260009054906101000a900473ffffffffffffffffffffffffffffffffffffffff1673ffffffffffffffffffffffffffffffffffffffff166108fc849081150290604051600060405180830381858888f193505050501580156109f6573d6000803e3d6000fd5b506000610a1e84610a10878961105990919063ffffffff16565b61105990919063ffffffff16565b9050600073ffffffffffffffffffffffffffffffffffffffff168973ffffffffffffffffffffffffffffffffffffffff1614610ab1578873ffffffffffffffffffffffffffffffffffffffff166108fc849081150290604051600060405180830381858888f19350505050158015610a9a573d6000803e3d6000fd5b50610aae838261105990919063ffffffff16565b90505b600073ffffffffffffffffffffffffffffffffffffffff168873ffffffffffffffffffffffffffffffffffffffff1614610b42578773ffffffffffffffffffffffffffffffffffffffff166108fc839081150290604051600060405180830381858888f19350505050158015610b2b573d6000803e3d6000fd5b50610b3f828261105990919063ffffffff16565b90505b428760010181905550610b6281886000015461106f90919063ffffffff16565b87600001819055507f1bfbbc4bfd696d0839cee9844b3f851e2320cc642887491844452e4ec5e273e68a60a001518b6000015188604051610ba593929190611bd5565b60405180910390a17f1bfbbc4bfd696d0839cee9844b3f851e2320cc642887491844452e4ec5e273e68a60c001518b6000015187604051610be893929190611bd5565b60405180910390a17f1bfbbc4bfd696d0839cee9844b3f851e2320cc642887491844452e4ec5e273e6600260009054906101000a900473ffffffffffffffffffffffffffffffffffffffff168b6000015186604051610c4993929190611bd5565b60405180910390a150505050505050505050565b7f7a8dc26796a1e50e6e190b70259f58f6a4edd5b22280ceecc82b687b8e98286981565b610cab7f9ddf52339f0dbdcb0c416ccf917387fb75fd64b3bcdf926c8dbb00d7165317c03361053c565b610cea576040517f08c379a0000000000000000000000000000000000000000000000000000000008152600401610ce190611c7e565b60405180910390fd5b610d1381600360008581526020019081526020016000206000015461105990919063ffffffff16565b60036000848152602001908152602001600020600001819055507fce88b439105666372c4d9af0a307046ef3c65c23a8533efd717dd2f04dd87e9333837f000000000000000000000000000000000000000000000000000000000000000084604051610d829493929190611c9e565b60405180910390a15050565b60007f01ffc9a7000000000000000000000000000000000000000000000000000000007bffffffffffffffffffffffffffffffffffffffffffffffffffffffff1916827bffffffffffffffffffffffffffffffffffffffffffffffffffffffff1916149050919050565b610e0981610e04610eec565b611085565b50565b610e16828261053c565b610ee857600160008084815260200190815260200160002060000160008373ffffffffffffffffffffffffffffffffffffffff1673ffffffffffffffffffffffffffffffffffffffff16815260200190815260200160002060006101000a81548160ff021916908315150217905550610e8d610eec565b73ffffffffffffffffffffffffffffffffffffffff168173ffffffffffffffffffffffffffffffffffffffff16837f2f8788117e7eff1d82e926ec794901d17c78024a50270940304540a733656f0d60405160405180910390a45b5050565b600033905090565b610efe828261053c565b15610fd157600080600084815260200190815260200160002060000160008373ffffffffffffffffffffffffffffffffffffffff1673ffffffffffffffffffffffffffffffffffffffff16815260200190815260200160002060006101000a81548160ff021916908315150217905550610f76610eec565b73ffffffffffffffffffffffffffffffffffffffff168173ffffffffffffffffffffffffffffffffffffffff16837ff6391f5c32d9c69d2a47ea670b442974b53935d1edc7fd64eb21e047a839171b60405160405180910390a45b5050565b60026001540361101a576040517f08c379a000000000000000000000000000000000000000000000000000000000815260040161101190611d2f565b60405180910390fd5b6002600181905550565b60018081905550565b6000818361103b9190611d7e565b905092915050565b600081836110519190611daf565b905092915050565b600081836110679190611e09565b905092915050565b6000818361107d9190611ad6565b905092915050565b61108f828261053c565b6111065761109c8161110a565b6110aa8360001c6020611137565b6040516020016110bb929190611f46565b6040516020818303038152906040526040517f08c379a00000000000000000000000000000000000000000000000000000000081526004016110fd9190611fb9565b60405180910390fd5b5050565b60606111308273ffffffffffffffffffffffffffffffffffffffff16601460ff16611137565b9050919050565b60606000600283600261114a9190611daf565b6111549190611e09565b67ffffffffffffffff81111561116d5761116c611647565b5b6040519080825280601f01601f19166020018201604052801561119f5781602001600182028036833780820191505090505b5090507f3000000000000000000000000000000000000000000000000000000000000000816000815181106111d7576111d6611fdb565b5b60200101907effffffffffffffffffffffffffffffffffffffffffffffffffffffffffffff1916908160001a9053507f78000000000000000000000000000000000000000000000000000000000000008160018151811061123b5761123a611fdb565b5b60200101907effffffffffffffffffffffffffffffffffffffffffffffffffffffffffffff1916908160001a9053506000600184600261127b9190611daf565b6112859190611e09565b90505b6001811115611325577f3031323334353637383961626364656600000000000000000000000000000000600f8616601081106112c7576112c6611fdb565b5b1a60f81b8282815181106112de576112dd611fdb565b5b60200101907effffffffffffffffffffffffffffffffffffffffffffffffffffffffffffff1916908160001a905350600485901c94508061131e9061200a565b9050611288565b5060008414611369576040517f08c379a00000000000000000000000000000000000000000000000000000000081526004016113609061207f565b60405180910390fd5b8091505092915050565b6000604051905090565b600080fd5b60007fffffffff0000000000000000000000000000000000000000000000000000000082169050919050565b6113b781611382565b81146113c257600080fd5b50565b6000813590506113d4816113ae565b92915050565b6000602082840312156113f0576113ef61137d565b5b60006113fe848285016113c5565b91505092915050565b60008115159050919050565b61141c81611407565b82525050565b60006020820190506114376000830184611413565b92915050565b600073ffffffffffffffffffffffffffffffffffffffff82169050919050565b60006114688261143d565b9050919050565b6114788161145d565b82525050565b6000602082019050611493600083018461146f565b92915050565b6000819050919050565b6114ac81611499565b81146114b757600080fd5b50565b6000813590506114c9816114a3565b92915050565b6000602082840312156114e5576114e461137d565b5b60006114f3848285016114ba565b91505092915050565b61150581611499565b82525050565b600060208201905061152060008301846114fc565b92915050565b60006115318261143d565b9050919050565b61154181611526565b811461154c57600080fd5b50565b60008135905061155e81611538565b92915050565b6000806040838503121561157b5761157a61137d565b5b6000611589858286016114ba565b925050602061159a8582860161154f565b9150509250929050565b6000819050919050565b6115b7816115a4565b81146115c257600080fd5b50565b6000813590506115d4816115ae565b92915050565b6000602082840312156115f0576115ef61137d565b5b60006115fe848285016115c5565b91505092915050565b611610816115a4565b82525050565b600060208201905061162b6000830184611607565b92915050565b600080fd5b6000601f19601f8301169050919050565b7f4e487b7100000000000000000000000000000000000000000000000000000000600052604160045260246000fd5b61167f82611636565b810181811067ffffffffffffffff8211171561169e5761169d611647565b5b80604052505050565b60006116b1611373565b90506116bd8282611676565b919050565b60006116cd82611526565b9050919050565b6116dd816116c2565b81146116e857600080fd5b50565b6000813590506116fa816116d4565b92915050565b6117098161145d565b811461171457600080fd5b50565b60008135905061172681611700565b92915050565b61173581611407565b811461174057600080fd5b50565b6000813590506117528161172c565b92915050565b6000610120828403121561176f5761176e611631565b5b61177a6101206116a7565b9050600061178a848285016115c5565b600083015250602061179e848285016116eb565b60208301525060406117b2848285016115c5565b60408301525060606117c6848285016115c5565b60608301525060806117da848285016115c5565b60808301525060a06117ee84828501611717565b60a08301525060c061180284828501611717565b60c08301525060e0611816848285016115c5565b60e08301525061010061182b84828501611743565b6101008301525092915050565b600080600061016084860312156118525761185161137d565b5b600061186086828701611758565b93505061012061187286828701611717565b92505061014061188486828701611717565b9150509250925092565b600080604083850312156118a5576118a461137d565b5b60006118b3858286016115c5565b92505060206118c4858286016115c5565b9150509250929050565b600082825260208201905092915050565b7f416363657373436f6e74726f6c3a2063616e206f6e6c792072656e6f756e636560008201527f20726f6c657320666f722073656c660000000000000000000000000000000000602082015250565b600061193b602f836118ce565b9150611946826118df565b604082019050919050565b6000602082019050818103600083015261196a8161192e565b9050919050565b7f43616c6c657220686173206e6f74207769746864726177616c207065726d697360008201527f73696f6e73000000000000000000000000000000000000000000000000000000602082015250565b60006119cd6025836118ce565b91506119d882611971565b604082019050919050565b600060208201905081810360008301526119fc816119c0565b9050919050565b7f416d6f756e74206d75737420626520677265617465722074686174207a65726f600082015250565b6000611a396020836118ce565b9150611a4482611a03565b602082019050919050565b60006020820190508181036000830152611a6881611a2c565b9050919050565b611a7881611526565b82525050565b6000604082019050611a936000830185611a6f565b611aa06020830184611607565b9392505050565b7f4e487b7100000000000000000000000000000000000000000000000000000000600052601160045260246000fd5b6000611ae1826115a4565b9150611aec836115a4565b9250828203905081811115611b0457611b03611aa7565b5b92915050565b7f546f6f206561726c790000000000000000000000000000000000000000000000600082015250565b6000611b406009836118ce565b9150611b4b82611b0a565b602082019050919050565b60006020820190508181036000830152611b6f81611b33565b9050919050565b6000819050919050565b6000611b9b611b96611b918461143d565b611b76565b61143d565b9050919050565b6000611bad82611b80565b9050919050565b6000611bbf82611ba2565b9050919050565b611bcf81611bb4565b82525050565b6000606082019050611bea6000830186611bc6565b611bf76020830185611607565b611c046040830184611607565b949350505050565b7f43616c6c657220686173206e6f7420696e637265617365207065726d6973736960008201527f6f6e730000000000000000000000000000000000000000000000000000000000602082015250565b6000611c686023836118ce565b9150611c7382611c0c565b604082019050919050565b60006020820190508181036000830152611c9781611c5b565b9050919050565b6000608082019050611cb36000830187611a6f565b611cc06020830186611607565b611ccd6040830185611607565b611cda6060830184611607565b95945050505050565b7f5265656e7472616e637947756172643a207265656e7472616e742063616c6c00600082015250565b6000611d19601f836118ce565b9150611d2482611ce3565b602082019050919050565b60006020820190508181036000830152611d4881611d0c565b9050919050565b7f4e487b7100000000000000000000000000000000000000000000000000000000600052601260045260246000fd5b6000611d89826115a4565b9150611d94836115a4565b925082611da457611da3611d4f565b5b828204905092915050565b6000611dba826115a4565b9150611dc5836115a4565b9250817fffffffffffffffffffffffffffffffffffffffffffffffffffffffffffffffff0483118215151615611dfe57611dfd611aa7565b5b828202905092915050565b6000611e14826115a4565b9150611e1f836115a4565b9250828201905080821115611e3757611e36611aa7565b5b92915050565b600081905092915050565b7f416363657373436f6e74726f6c3a206163636f756e7420000000000000000000600082015250565b6000611e7e601783611e3d565b9150611e8982611e48565b601782019050919050565b600081519050919050565b60005b83811015611ebd578082015181840152602081019050611ea2565b60008484015250505050565b6000611ed482611e94565b611ede8185611e3d565b9350611eee818560208601611e9f565b80840191505092915050565b7f206973206d697373696e6720726f6c6520000000000000000000000000000000600082015250565b6000611f30601183611e3d565b9150611f3b82611efa565b601182019050919050565b6000611f5182611e71565b9150611f5d8285611ec9565b9150611f6882611f23565b9150611f748284611ec9565b91508190509392505050565b6000611f8b82611e94565b611f9581856118ce565b9350611fa5818560208601611e9f565b611fae81611636565b840191505092915050565b60006020820190508181036000830152611fd38184611f80565b905092915050565b7f4e487b7100000000000000000000000000000000000000000000000000000000600052603260045260246000fd5b6000612015826115a4565b91506000820361202857612027611aa7565b5b600182039050919050565b7f537472696e67733a20686578206c656e67746820696e73756666696369656e74600082015250565b60006120696020836118ce565b915061207482612033565b602082019050919050565b600060208201905081810360008301526120988161205c565b905091905056fea264697066735822122098e10ec1a8036df90e22e5d4122ea007d35dee2321c751d6f132139f8c3166b464736f6c63430008100033",
  "linkReferences": {},
  "deployedLinkReferences": {}
}